:04000000E0EF04F039
:1000080000C015F0F2A40ED0F2940001E44BE52BE9
:10001800000EE51902E17A0EE41904E1E46BE56BE0
:0A002800344A352A15C000F011001B
:06003200000000001200B6
:0A003800210E0D6E0D2EFED71200F2
:100042000F0E0C6E470E0D6E0D2EFED70C2EFCD72A
:0600520000000000120096
:1000580001011EBF02D0839E01D0838E1EBD02D037
:10006800839C01D0838C1EBB02D0839A01D0838AE3
:100078001EB902D0839801D083880001F9B102D05B
:10008800848001D084908482D0DF849201011EB7DD
:1000980002D0839E01D0838E1EB502D0839C01D0EE
:1000A800838C1EB302D0839A01D0838A1EB102D0FA
:1000B800839801D083880001F9B102D0848001D0EF
:1000C80084908482B2DF8492F9A102D0B6DF01D095
:0400D800AFDF120084
:1000DC00086A096A100E0C6E013408360936045091
:1000EC00085E0550D8A0053C095ED8B007D0045076
:1000FC0008260550D8B0053C0926D89000360136A4
:06010C000C2EEAD71200E0
:1001120001011B6B050E1B5D0AE21B511925E16EE5
:10012200000E1A21E26E200EE66E1B2BF3D71B5136
:100132001925E16E000E1A21E26EE66A1B071B51B9
:1001420019251C6F000E1A211D6F0A0E046E000E77
:10015200056E17C100F018C101F0BFDF08C000F042
:1001620009C001F0300E00261CC1E1FF1DC1E2FFF3
:1001720000C0E6FF0A0E046E000E056E17C100F005
:1001820018C101F0AADF00C017F101C018F1000E7A
:10019200011802E1000E001801E102D01B07CFD7BF
:0201A200120049
:0E01A4000001F99117C11EF155DFF98112001B
:1001B2000101136B146B0DC115F10EC116F1800E06
:1001C2000E19006E800E005C02E1000E0D5D0BE266
:1001D200010E136F000E146F0D510008156F0EC142
:1001E20016F1000E165715C117F116C118F10FC1FD
:1001F20019F110C11AF18CDF060E116F000E126F89
:10020200000E006E1251005C02E11151000819E269
:1002120011510F25E16E12511021E26E010E115D96
:10022200006E000E1259016E00500F25E96E01504A
:100232001021EA6EEECFE6FF010E115F000E125B97
:10024200DFD70FC1E1FF10C1E2FF200EE66E1351AE
:1002520014111AE0116B126B11510F25E96E125134
:100262001021EA6EEE50200A03E1114B122BF4D753
:10027200010E115F000E125B11510F25E16E12513A
:0A0282001021E26E2D0EE66E120050
:10028C0001010F6B0F510D25E96E000E0E21EA6E68
:10029C00EE520CE00F510D25E96E000E0E21EA6EA8
:0E02AC00EECF17F179DF01010F2BECD7120016
:1002BA0001010F6B106B0DC103F00EC104F00DC1EB
:1002CA0005F00EC106F003C0E9FF04C0EAFFEE50D4
:1002DA00200A04E10F51101101E110D0010E0F6F35
:1002EA00000E106F03C0E9FF04C0EAFF05C0E1FF7A
:1002FA0006C0E2FFEECFE6FF054A062A03C001F078
:10030A0004C002F0034A042A01C0E9FF02C0EAFF5E
:10031A00EE50000AD8E10DC100F00EC101F0120042
:10032A00000E0001F41902E1000EF31906E1560E5F
:10033A0001010D6F000E0E6FA4DF000E0001F4190B
:10034A0002E1010EF31906E1600E01010D6F000EC4
:10035A000E6F97DF000E0001F41902E1020EF31985
:10036A0006E1420E01010D6F000E0E6F8ADF000ECC
:10037A000001F41902E1030EF31906E14C0E010122
:10038A000D6F000E0E6F7DDF000E0001F41902E101
:10039A00040EF31906E16A0E01010D6F000E0E6FCD
:1003AA0070DF000E0001F41902E1050EF31906E1EF
:1003BA00880E01010D6F000E0E6F63DF000E000143
:1003CA00F41902E1060EF31906E1920E01010D6F0E
:1003DA00000E0E6F56DF000E0001F41902E1070E3F
:1003EA00F31906E1740E01010D6F000E0E6F49DF5D
:1003FA00000E0001F41902E1080EF31906E17E0E5F
:10040A0001010D6F000E0E6F3CDF000E0001F419A2
:10041A0002E1090EF31906E1380E01010D6F000E13
:10042A000E6F2FDF000E0001F41902E10A0EF31914
:10043A0006E11A0E01010D6F000E0E6F22DF000E8B
:10044A000001F41902E10B0EF31906E1240E010171
:0A045A000D6F000E0E6F15DF12008B
:10046400F5C00DF1F6C00EF1FA0E01010F6F000E8A
:10047400106F9DDEFA0E0D6F000E0E6F1CDF00C0B4
:0A0484000DF101C00EF100DF1200BF
:10048E0016C00DF117C00EF1FA0E01010F6F000E1E
:10049E00106F88DE800E1718006E800E005C02E171
:1004AE000A0E165C05E2180E0D6F000E0E6FE7DEDB
:1004BE00FA0E0D6F000E0E6FF9DE00C00DF101C0C9
:1004CE000EF1DDDE2E0E0D6F000E0E6FD8DE120059
:1004DE0010D0800E0101086F1AD0C00E086F17D011
:1004EE00940E086F14D0D40E086F11D0800E086FC2
:1004FE000ED001010851010AECE00851020AEDE0AC
:10050E000851030AEDE00851040AEDE0EFD70905A2
:10051E00006E0851002600C008F100C01EF195DDE6
:10052E00F99101010C6B0C510A25E96E000E0B219D
:10053E00EA6EEE520CE00C510A25E96E000E0B210C
:10054E00EA6EEECF17F127DE01010C2BECD700017E
:04055E00F98112000D
:100562000134083609360450085E0550D8A0053C0F
:10057200095E003601360F0E0C6E0134083609365C
:10058200045000A006D0085E0550D8A0053C095EC4
:1005920005D008260550D8B0053C0926003601369C
:1005A2000C2EEBD700B006D0045008260550D8B068
:0805B200053C092600001200BF
:1005BA00000E331802E1000E321806E1B10E0101F5
:1005CA000D6F000E0E6F5DDE000E331802E1010E94
:1005DA00321806E101019E0E0D6F000E0E6F51DEFC
:1005EA00000E331802E1020E321806E10101A70ECD
:1005FA000D6F000E0E6F45DE000E331802E1030E7A
:10060A00321806E10101BA0E0D6F000E0E6F39DEC7
:10061A00000E331802E1040E321806E10101CC0E75
:10062A000D6F000E0E6F2DDE000E331802E1050E5F
:10063A00321806E10101D50E0D6F000E0E6F21DE94
:10064A00000E331802E1060E321806E10101C30E4C
:0A065A000D6F000E0E6F15DE12008A
:1006640030C00DF131C00EF1FA0E01010F6F000E12
:10067400106F9DDD800E3118006E800E005C02E16B
:100684000A0E305C05E29C0E0D6F000E0E6FFCDD51
:10069400FA0E0D6F000E0E6F0EDE00C00DF101C0DC
:1006A4000EF1F2DD800E0001E519006E800E005C93
:1006B40002E13D0EE45D07E2E60E01010D6F000E5E
:1006C4000E6FE2DD06D00101E00E0D6F000E0E6F1D
:1006D400DBDD000E0001E31902E1010EE21910E175
:1006E400800EE519006E800E005C02E13D0EE45DB3
:1006F40007E2E80E01010D6F000E0E6FC5DD22D07A
:10070400010136C00DF137C00EF1FA0E0F6F000E65
:10071400106F4DDD800E3718006E800E005C02E114
:100724000A0E365C05E2EF0E0D6F000E0E6FACDDA7
:10073400FA0E0D6F000E0E6FBEDD00C00DF101C08C
:100744000EF1A2DD800E0001E519006E800E005C42
:1007540002E13D0EE45D07E2F10E01010D6F000EB2
:100764000E6F92DD06D00101EB0E0D6F000E0E6FC1
:100774008BDD34C00DF135C00EF1FA0E0F6F000E93
:10078400106F15DD800E3518006E800E005C02E1DE
:100794000A0E345C05E2ED0E0D6F000E0E6F74DD73
:1007A400FA0E0D6F000E0E6F86DD00C00DF101C054
:0607B4000EF16ADD1200E7
:1007BA00969296909598959A959C959E84928490F7
:1007CA00839E839C839A839837DC36DC35DC838A64
:1007DA008388848229DC84922FDC848225DC8492BB
:1007EA002BDC848221DC849227DC839884821CDCC3
:1007FA00849222DC848218DC8492839A838E848297
:10080A0013DC849219DC839E838884820DDC8492B3
:10081A008398848209DC84920FDC848205DC8492CA
:10082A008388848201DC849207DC8398848219ECB1
:10083A0000F08492838E838C838A8388848219EC65
:0E084A0000F0849221EC00F00001F981120010
:10085800816A0F0E936E0F0EC16E070EB46EF16AA9
:0A086800C50ED56EF28AF28E120062
:100872000900F5CFE6FF0006FBE10106F9E11200EF
:100882000450000A08E10550000A05E1FF0E006E5F
:100892007F0E016E57D00D6A096A086A0150001076
:1008A200D8B4000C015005180A6E0ABE0D1E0B6A60
:1008B20005AE05D0041E051E042AD8B4052A01AED1
:1008C20005D0001E011E002AD8B4012A01500510CD
:1008D2000A6E0ABE10D044DE0BB020D00DAE000C62
:1008E200001E011E002AD8B4012A081E091E082A69
:1008F200D8B4092A000C05AE0DD001BE07D00150B4
:10090200096E0050086E016A006AE8D7016A006A3F
:10091200002A000C011E001E0B2ADDD7082AD8B4BB
:10092200092A0450085CD8A4D9D70550095CD8A478
:10093200D5D7096A086A002AD8B4012A01AECED7EF
:060942000000FF0C120092
:10094800010E0101086F010E096FF80E0A6F000E03
:100958000B6FC1DD98DDE5DC81DD020E086F010E4D
:10096800096FF70E0A6F000E0B6FB5DD22DE76DE1B
:0209780012006B
:10097A00000E351802E13C0E341804E1346A356A77
:10098A00364A372A000E371802E13C0E361804E1BF
:10099A00366A376A304A312A000E311802E1180ED7
:1009AA00301808E1306A316A344A352A324A332A21
:0609BA00164A172A120084
:1009C0000EEC08F049DFF9DE0C0E01011E6F2CEC75
:1009D00000F0010E01011E6F2CEC00F0CEDFB4DF41
:1009E00081B024D081B00ED0020E0B6E040E0C6EBE
:1009F000BA0E0D6E0D2EFED70C2EFCD70B2EFAD78D
:100A00000000F0D7800E0001E319006E800E005C3C
:100A100002E1070EE25D02E2E24BE32B000EE31976
:100A200002E1070EE21902E1E26BE36B81B213D03F
:100A300081B20ED0020E0B6E040E0C6EBA0E0D6E4D
:100A40000D2EFED70C2EFCD70B2EFAD70000F0D7B8
:100A50000001E26BE36B0001000EE31902E1010EFD
:100A6000E2193CE181B41BD081B40ED0020E0B6EB2
:100A7000040E0C6EBA0E0D6E0D2EFED70C2EFCD78A
:100A80000B2EFAD70000F0D7800E3718006E800EBC
:100A9000005C02E13C0E365C02E2364A372A81B63F
:100AA0001DD081B60ED0020E0B6E040E0C6EBA0E67
:100AB0000D6E0D2EFED70C2EFCD70B2EFAD7000094
:100AC000F0D7800E006E800E3718005C02E13650C1
:100AD000000804E2010E365E000E375A0001000ED7
:100AE000E31902E1020EE2193CE181B41BD081B4AA
:100AF0000ED0020E0B6E040E0C6EBA0E0D6E0D2E85
:100B0000FED70C2EFCD70B2EFAD70000F0D7800EA4
:100B10003118006E800E005C02E1180E305C02E2BB
:100B2000304A312A81B61DD081B60ED0020E0B6E2E
:100B3000040E0C6EBA0E0D6E0D2EFED70C2EFCD7C9
:100B40000B2EFAD70000F0D7800E006E800E311801
:100B5000005C02E13050000804E2010E305E000E3D
:100B6000315A0001000EE31902E1030EE21944E1DB
:100B700081B41ED081B40ED0020E0B6E040E0C6E2A
:100B8000BA0E0D6E0D2EFED70C2EFCD70B2EFAD7FB
:100B90000000F0D7800E3318006E800E005C02E17A
:100BA000060E325C03E2324A332A02D0326A336ADA
:100BB00081B622D081B60ED0020E0B6E040E0C6EE2
:100BC000BA0E0D6E0D2EFED70C2EFCD70B2EFAD7BB
:100BD0000000F0D7800E006E800E3318005C02E13A
:100BE0003250000805E2010E325E000E335A04D086
:100BF000060E326E000E336E0001000EE31902E1A4
:100C0000040EE219D8A4FDD0000EF41902E1000E82
:100C1000F31904E11F0EDE6F000EDF6F000EF419F2
:100C200002E1020EF31904E11F0EDE6F000EDF6F0A
:100C3000000EF41902E1030EF31904E11E0EDE6F3B
:100C4000000EDF6F000EF41902E1040EF31904E147
:100C50001F0EDE6F000EDF6F000EF41902E1050EAD
:100C6000F31904E11E0EDE6F000EDF6F000EF419A3
:100C700002E1060EF31904E11F0EDE6F000EDF6FB6
:100C8000000EF41902E1070EF31904E11F0EDE6FE6
:100C9000000EDF6F000EF41902E1080EF31904E1F3
:100CA0001E0EDE6F000EDF6F000EF41902E1090E5A
:100CB000F31904E11F0EDE6F000EDF6F000EF41952
:100CC00002E10A0EF31904E11E0EDE6F000EDF6F63
:100CD000000EF41902E10B0EF31904E11F0EDE6F92
:100CE000000EDF6F000EF41902E1010EF3194BE163
:100CF000900E046E010E056EF5C000F0F6C001F016
:100D0000C0DD08C000F009C001F0000E011802E1CA
:100D1000000E001815E1640E046E000E056EF5C09D
:100D200000F0F6C001F0ADDD000E011802E1000E8A
:100D3000001806E0010E0001DE6F000EDF6F05D027
:100D400000011C0EDE6F000EDF6F040E046E000E3D
:100D5000056EF5C000F0F6C001F093DD08C000F0AC
:100D600009C001F0000E011802E1000E001806E1B2
:100D70001D0E0001DE6F000EDF6F05D000011C0E9E
:100D8000DE6F000EDF6F81B41CD081B40ED0020E76
:100D90000B6E040E0C6EBA0E0D6E0D2EFED70C2EC1
:100DA000FCD70B2EFAD70000F0D7800E1718006E74
:100DB000800EDF19005C02E1DE51165C02E2164A89
:100DC000172A81B61ED081B60ED0020E0B6E040E0D
:100DD0000C6EBA0E0D6E0D2EFED70C2EFCD70B2E00
:100DE000FAD70000F0D7800E006E800E1718005C56
:100DF00003E100011650B05D04E2010E165E000E24
:100E0000175A0001000EE31902E1050EE21944E150
:100E100081B41ED081B40ED0020E0B6E040E0C6E87
:100E2000BA0E0D6E0D2EFED70C2EFCD70B2EFAD758
:100E30000000F0D7800EF419006E800E005C02E115
:100E40000B0EF35D03E2F34BF42B02D0F36BF46B68
:100E500081B622D081B60ED0020E0B6E040E0C6E3F
:100E6000BA0E0D6E0D2EFED70C2EFCD70B2EFAD718
:100E70000000F0D7800E006E800EF419005C02E1D5
:100E8000F351000805E2010EF35F000EF45B04D09D
:100E90000B0EF36F000EF46F000EE31902E1060E65
:100EA000E21948E181B421D081B40ED0020E0B6E5C
:100EB000040E0C6EBA0E0D6E0D2EFED70C2EFCD746
:100EC0000B2EFAD70000F0D7800EF619006E800EB8
:100ED000270A005C02E10F0EF55D03E2F54BF62BED
:100EE00004D0E80EF56F070EF66F81B623D081B6F9
:100EF0000ED0020E0B6E040E0C6EBA0E0D6E0D2E81
:100F0000FED70C2EFCD70B2EFAD70000F0D7800EA0
:100F1000070A006E800EF619005C02E1F551E80840
:100F200005E2010EF55F000EF65B04D00F0EF56FC3
:080F3000270EF66F53D5FFD721
:10101C0010EE16F0E30E006E010E016E380EF66E39
:0E102C000F0EF76E000EF86E39EC04F0120095
:020F38001400A3
:020F3A00300085
:0A0F3C004E6F76656D62726F200043
:0A0F460044657A656D62726F200049
:020F500020007F
:020F5200080095
:020F5400030098
:020F5600000099
:020F5800060091
:0A0F5A004F75747562726F2020005D
:0A0F64004D6172636F202020200011
:0A0F6E00416272696C20202020000F
:0A0F78004A616E6569726F20200067
:0A0F820046657665726569726F00BE
:0A0F8C004D61696F20202020200035
:0A0F960041676F73746F2020200084
:0A0FA000536574656D62726F2000E6
:0A0FAA004A756E686F2020202000B9
:0A0FB4004A756C686F2020202000B1
:020FBE00300001
:090FC000446F6D696E676F20003B
:090FC900536567756E6461200038
:010FD200001E
:090FD30053616261646F2020008B
:090FDC00546572636120202000BD
:090FE5005365787461202020009E
:090FEE005175617274612020004C
:090FF7005175696E74612020003F
:021000000000EE
:021002002000CC
:021004000000EA
:021006000000E8
:021008003A00AC
:03100A00202000A3
:02100D002000C1
:02100F003000AF
:021011003000AD
:021013003A00A1
:021015000000D9
:02101700E907E7
:0110190000D6
:01101A0000D5
:020000040030CA
:0D000100021F1EFF8381FF0FC00FE00F40A4
:00000001FF
